:020000040800F2
:100000000000022089010008C9060008E90600086E
:10001000CD060008D1060008F10600080000000027
:10002000000000000000000000000000F5060008CD
:10003000F906000800000000FD060008711B00081A
:10004000E7010008E9010008EB010008ED010008E4
:10005000EF010008F1010008F3010008F5010008B4
:10006000F7010008F9010008FB010008FD01000884
:10007000FF01000801020008030200080502000851
:1000800007020008090200080B0200080D02000820
:1000900009290008110200081302000815020008CF
:1000A00017020008190200081B0200081D020008C0
:1000B0001F02000821020008230200082502000890
:1000C00027020008290200082B0200082D02000860
:1000D0002F02000831020008330200083502000830
:1000E00037020008390200083B0200083D02000800
:1000F0003F020008410200084302000845020008D0
:1001000047020008490200084B0200084D0200089F
:100110004F0200085102000853020008550200086F
:1001200057020008590200085B0200085D0200083F
:100130005F0200086102000863020008650200080F
:1001400067020008690200086B0200086D020008DF
:100150006F020008710200087302000875020008AF
:1001600077020008790200087B0200087D0200087F
:100170007F0200088102000883020008850200084F
:10018000870200088902000803F00CFF0B4880F387
:1001900008880B490B4A0C4B9A42BEBF51F8040B1E
:1001A00042F8040BF8E70949094A00209142BCBF14
:1001B00041F8040BFAE701F0E3FC00000000022024
:1001C00000590008000000206C0800207008002082
:1001D000C4110020FEE7FEE7FEE7FEE7FEE7FEE7CC
:1001E000FEE7FEE7FEE7FEE7FEE7FEE7FEE7FEE7E7
:1001F000FEE7FEE7FEE7FEE7FEE7FEE7FEE7FEE7D7
:10020000FEE7FEE7FEE7FEE7FEE7FEE7FEE7FEE7C6
:10021000FEE7FEE7FEE7FEE7FEE7FEE7FEE7FEE7B6
:10022000FEE7FEE7FEE7FEE7FEE7FEE7FEE7FEE7A6
:10023000FEE7FEE7FEE7FEE7FEE7FEE7FEE7FEE796
:10024000FEE7FEE7FEE7FEE7FEE7FEE7FEE7FEE786
:10025000FEE7FEE7FEE7FEE7FEE7FEE7FEE7FEE776
:10026000FEE7FEE7FEE7FEE7FEE7FEE7FEE7FEE766
:10027000FEE7FEE7FEE7FEE7FEE7FEE7FEE7FEE756
:10028000FEE7FEE7FEE7FEE7FEE700BF08B5012157
:100290004FF4807000F01CFD00214FF48070BDE829
:1002A000084000F015BD00BFF0B544680A680E793B
:1002B000D1F810E0CD680F4B24F0407424F4807422
:1002C000224342EA0622426087688A684E794EEAF3
:1002D000050422433B40134343EA460383600A7DFF
:1002E000C36A013AD2B223F4700343EA0253C362F1
:1002F000F0BD00BFFDF7FFC00023012202750360BF
:10030000037143718360C3600361704770B44268D6
:100310000668064D8468C168054B6868324322430D
:100320000A43034013436B6070BC704700230140D5
:10033000E030FCFF0023036043608360C3607047CC
:10034000836819B923F001038360704743F0010308
:1003500083607047436823F4400323F40073194318
:100360004160704741628262704700BF436823F07A
:100370001F03194341607047054A536818B923F4B5
:1003800000035360704743F400035360704700BF9D
:1003900000230140054A536818B923F480035360D1
:1003A000704743F480035360704700BF002301404F
:1003B000092970B41DD9A1F10A0606EB4606C568E5
:1003C0000724B440B34025EA04042343062AC3604B
:1003D0001BD90C2A27D90D3A02EB8202C36A1F24CB
:1003E000944001FA02F223EA04010A43C26270BC9B
:1003F000704701EB410605690724B440B34025EA84
:1004000004042343062A0361E3D8013A02EB820283
:10041000436B1F24944001FA02F223EA04010A43C9
:10042000426370BC7047073A02EB8202036B1F24E1
:10043000944001FA02F223EA04010A43026370BC09
:10044000704700BF836843F080438360704700BFFC
:100450008068C0F380707047836819B923F48063A3
:100460008360704743F4806383607047836819B981
:1004700023F002038360704743F0020383607047F8
:100480004368013923F4604343EA413141607047D6
:10049000436819B923F400634360704743F4006371
:1004A00043607047C06C80B2704700BF014B186852
:1004B000704700BF08230140836819B923F4807393
:1004C0008360704743F4807383607047836819B911
:1004D00023F400738360704743F4007383607047B4
:1004E000054A536818B923F400535360704743F426
:1004F00000535360704700BF00230140092970B4C6
:100500001BD801EB410605690724B440B34025EA36
:10051000040423430361836B0232C3F30154121BAF
:10052000D2B202EB82021F24944023EA040301FAB0
:1005300002F21343836370BC7047A1F10A0606EB15
:100540004606C5680724B440B34025EA04042343A3
:10055000C360E0E7836B013923F4401343EA0151A0
:100560008163704782B0002301930190019B19447D
:100570000191019B1A6002B0704700BF836823F4A9
:100580007023194381607047836823F44013194333
:1005900081607047836843F480038360704700BFC5
:1005A0008068C0F380507047436819B923F48063B2
:1005B0004360704743F4806343607047436819B9F0
:1005C00023F480534360704743F480534360704783
:1005D00082B0002301930190019B283319440191BB
:1005E000019B186880B202B0704700BFC9B20123F6
:1005F0008B4041681AB921EA0303436070470B43FB
:10060000436070470368194214BF012000207047FF
:10061000C9430160704700BF4268006810EA1120BA
:1006200007D00123C9B203FA01F1114214BF1846E1
:10063000002070476FEA11210160704708B5012161
:100640004FF4804000F044FB00214FF48040BDE8AF
:10065000084000F03DBB00BF014B1860704700BF71
:1006600000380140014B1860704700BF200027424E
:1006700001F0FC0303F1804303F59C3301F0030117
:1006800010B489009C680F228A4024EA02029A6012
:100690009A685DF8044B884010439860704700BF2B
:1006A000014B1860704700BFDC002742014B186007
:1006B000704700BF00042742024B186AC0F30020B5
:1006C000704700BF00380140704700BFFEE700BF21
:1006D00008B501214FF4006000F0A6FA014B80221A
:1006E0001A60FEE7002C004008B5FFF7F1FF00BFDD
:1006F000FEE700BF704700BF704700BF704700BFF4
:1007000008B501214FF0805000F0D4FA00214FF0DD
:100710008050BDE8084000F0CDBA00BF014B186022
:10072000704700BF20000E42034A136823F0E00325
:1007300018431060704700BF00700040014B186004
:10074000704700BF10000E42014B1860704700BF99
:10075000A0000E42014B1860704700BFA4000E427B
:10076000034A136823F4404318431060704700BFE6
:1007700000700040014B1860704700BF40000E42FF
:10078000014B1860704700BF44000E42054A1368D1
:1007900018B923F440231360704743F440231360D7
:1007A000704700BF00700040014B1860704700BFE9
:1007B00024000E4210B40D4C0D4A236823F440630C
:1007C00023F00303184320601369012943F0040355
:1007D000136108D020BF064A5DF8044B136923F06B
:1007E00004031361704730BFF5E700BF007000409D
:1007F00000ED00E010B40D4C0D4A236823F4406373
:1008000023F00303184320601369012943F0040314
:10081000136108D020BF064A5DF8044B136923F02A
:1008200004031361704730BFF5E700BF007000405C
:1008300000ED00E00549064A0B6843F002030B6037
:10084000136943F00403136130BF70470070004028
:1008500000ED00E0034B5B68034214BF0120002061
:10086000704700BF00700040024A136843EA8000EE
:1008700010607047007000400F4B10481A6800214C
:1008800042F0010230B41A6099601A680C4D0D4CA8
:1008900022F0A85222F410221A605D60C3F884404E
:1008A000C3F888001A6822F480221A6030BCD9602C
:1008B000C3F88C10704700BF00380240003000249D
:1008C0001030002400300020024B00221A701870F3
:1008D000704700BF0238024082B000230A4A0193E9
:1008E00002E0B3F5A04F08D0136813F4003F019B5A
:1008F00003F101030193019BF3D0034B1868C0F38C
:10090000404002B0704700BF00380240034A1368FD
:1009100023F0F80343EAC00010607047003802403B
:10092000014B1860704700BF00004742064B002291
:1009300001281A701A7005D0042802D105221A70F5
:10094000704770471870704770380240014B18604C
:10095000704700BF800E474230B4029C064D40EA0B
:10096000046001435B08013B41EA821242EA034012
:10097000686030BC704700BF00380240014B18600F
:10098000704700BF600047420907034B41EA8010EF
:10099000C3F88400704700BF00380240014B186064
:1009A000704700BF68004742120742EA0161034BEB
:1009B00041EA8010C3F88800704700BF0038024049
:1009C000014B1860704700BF70004742014B186030
:1009D000704700BF4C004742034A936823F0EC6322
:1009E000194308439060704700380240034A9368F7
:1009F00023F0784319430843906070470038024061
:100A0000034A936823F0030318439060704700BFC4
:100A100000380240024B986800F00C00704700BF9D
:100A200000380240034A936823F0F00318439060B3
:100A3000704700BF00380240034A936823F4E05334
:100A400018439060704700BF00380240034A936823
:100A500023F4604343EAC0009060704700380240CE
:100A600010B4214CA36803F00C03042B1BD0082BFB
:100A70001CD01E4B03601C4A1D499468C4F3031428
:100A80000C5DE34043609468C4F382240C5D23FA58
:100A900004F4846092685DF8044BC2F342328A5CCD
:100AA000D340C3607047134B0360E4E76368616839
:100AB00013F4800F636818BF0E4C01F03F020CBFA7
:100AC0000A49B4FBF2F1C3F3881308BFB1FBF2F19A
:100AD00001FB03F2044B5B68C3F3014301335B008A
:100AE000B2FBF3F30360C6E7003802400024F400D1
:100AF0000000002000127A0000F44073B3F5407F3C
:100B000009D108498B6820F0704223F4F81322F4CD
:100B1000407213438B60034A136FC0F30B001843FA
:100B20001067704700380240014B1860704700BFE3
:100B30003C0E4742014B1860704700BF400E4742D1
:100B4000014B1860704700BF5C014742044AD2F86D
:100B50008C3023F440131843C2F88C00704700BF58
:100B600000380240044AD2F88C3023F44003184382
:100B7000C2F88C00704700BF00380240044AD2F827
:100B80008C30013823F01F030343C2F88C307047C8
:100B900000380240054AD2F88C30013823F4F8536B
:100BA00043EA0023C2F88C30704700BF003802408F
:100BB000044AD2F88C3023F440331843C2F88C0036
:100BC000704700BF00380240014B1860704700BFFB
:100BD000E011474229B9054A136B23EA000010636C
:100BE0007047024B1A6B104318637047003802407D
:100BF00029B9054A536B23EA000050637047024B42
:100C00005A6B1043586370470038024029B9054AAF
:100C1000936B23EA000090637047024B9A6B10437A
:100C2000986370470038024029B9054A136C23EADB
:100C3000000010647047024B1A6C10431864704730
:100C40000038024029B9054A536C23EA0000506479
:100C50007047024B5A6C104358647047003802408A
:100C600029B9054A136923EA000010617047024B55
:100C70001A691043186170470038024029B9054AC3
:100C8000536923EA000050617047024B5A691043D0
:100C9000586170470038024029B9054A936923EA30
:100CA000000090617047024B9A6910439861704749
:100CB0000038024029B9054A136A23EA000010628D
:100CC0007047024B1A6A104318627047003802409E
:100CD00029B9054A536A23EA000050627047024B63
:100CE0005A6A1043586270470038024029B9054AD1
:100CF000136D23EA000010657047024B1A6D104314
:100D0000186570470038024029B9054A536D23EA37
:100D1000000050657047024B5A6D1043586570478C
:100D20000038024029B9054A936D23EA0000906516
:100D30007047024B9A6D1043986570470038024027
:100D400029B9054A136E23EA000010667047024B6A
:100D50001A6E1043186670470038024029B9054AD8
:100D6000536E23EA000050667047024B5A6E1043E0
:100D70005866704700380240044A136F01280CBFC0
:100D800043F0080323F0080313677047003802405C
:100D900029B9054A137823EA000010707047024B06
:100DA0001A781043187070470D3802404309012B20
:100DB0000BD0022B094B0CBF1B6F5B6F00F01F00A9
:100DC00023FA00F000F001007047044B1B6800F0AC
:100DD0001F0023FA00F000F00100704700380240C5
:100DE000024A536F43F080735367704700380240E4
:100DF000034BDB68184214BF01200020704700BF7E
:100E000000380240014B1870704700BF0E38024096
:100E100008B53A4B984221D0394B984228D0394BEB
:100E2000984231D0384B98423AD0384B984243D010
:100E3000374B98424CD0374B984253D0364B984260
:100E400000D008BD01214FF00040FFF733FF002123
:100E50004FF00040BDE80840FFF72CBF01211020F3
:100E6000FFF736FF00211020BDE80840FFF730BF34
:100E700001214FF40030FFF71DFF00214FF4003037
:100E8000BDE80840FFF716BF01214FF48020FFF7AF
:100E900011FF00214FF48020BDE80840FFF70ABF92
:100EA00001214FF40020FFF705FF00214FF400203F
:100EB000BDE80840FFF7FEBE01214FF48010FFF7A8
:100EC000F9FE00214FF48010BDE80840FFF7F2BEA4
:100ED00001212020FFF7FCFE00212020BDE8084072
:100EE000FFF7F6BE01214FF08040FFF7E3FE00213F
:100EF0004FF08040BDE80840FFF7DCBE0010014025
:100F00000044004000480040004C004000500040B9
:100F10000014014000780040007C0040028A0B89E8
:100F2000F0B592B2CF888E88044622F440523A43FC
:100F300048890D4689892282A289334392B20343AC
:100F400022F4B05222F00C029BB21343A381A38A75
:100F50009BB223F440730B4385B0A3826846FFF72E
:100F60007FFD1D4B9C4228D003F580639C4224D01A
:100F7000029AA389A18913F4004F2B6802EB820225
:100F800014BF5B009B0002EB8202B2FBF3F0134A3A
:100F9000A2FB00356D096423090405FB13034FEA26
:100FA00005150CD41B013233A2FB0323C3F34313F7
:100FB0002B439BB2238105B0F0BD039AD9E7D9003A
:100FC0003231A2FB0131C1F3421242EA05039BB266
:100FD000238105B0F0BD00BF001001401F85EB511B
:100FE00000234FF416510C22016042818380C3809C
:100FF00003818381704700BF30B44A880D888C8894
:10100000038AC9882A4322430A439BB292B223F43B
:1010100070631343038230BC704700BF002303801A
:1010200043808380C3807047838929B923F40053A8
:101030001B041B0C838170479BB243F400538381D4
:10104000704700BF038B03F47F430383038B9BB282
:1010500019430183704700BF838919B9C3F30E0395
:10106000838170476FEA43436FEA53439BB28381A6
:10107000704700BF838A29B923F400631B041B0C4B
:10108000838270479BB243F400638382704700BF42
:10109000C1F30801818070478088C0F30800704761
:1010A000038A23F00F031B041B0C0382038A9BB2E9
:1010B00019430182704700BF838929B923F00203D5
:1010C0001B041B0C838170479BB243F00203838196
:1010D000704700BF838923F400631B041B0C8381CA
:1010E00083899BB219438181704700BF038A23F033
:1010F00020031B041B0C0382038A9BB21943018249
:10110000704700BF038A29B923F480431B041B0CDA
:10111000038270479BB243F480430382704700BF51
:1011200083899BB243F0010383817047838A29B985
:1011300023F008031B041B0C838270479BB243F00F
:1011400008038382704700BF038BDBB20383038BEA
:101150009BB243EA01210183704700BF838A29B90A
:1011600023F020031B041B0C838270479BB243F0C7
:1011700020038382704700BF838A29B923F01003BC
:101180001B041B0C838270479BB243F010038382C5
:10119000704700BF838A23F004031B041B0C838267
:1011A000838A9BB219438182704700BF838A29B921
:1011B00023F002031B041B0C838270479BB243F095
:1011C00002038382704700BF838A9BB21AB923EA65
:1011D00001018182704719438182704710B401F088
:1011E0001F04C1F342110123012903FA04F311D0B2
:1011F00002290CBF1030143032B902685DF8044B7C
:1012000022EA03030360704702685DF8044B13434E
:10121000036070470C30EFE70388194214BF0120C8
:1012200000207047C94389B201807047C1F3421260
:1012300010B4012301F01F04012A03FA04F317D0AC
:10124000022A0CBF028A828A92B21340028892B2AA
:1012500053B10123090A03FA01F10A4214BF1846E7
:1012600000205DF8044B704718465DF8044B70474A
:10127000828992B21340E9E7090A012303FA01F1D6
:10128000C94389B201807047FEE700BF4FF0FF30CD
:10129000704700BF024B0C221A604FF0FF307047BE
:1012A000C0110020024B0B221A604FF0FF30704734
:1012B000C01100204FF400534B600020704700BF66
:1012C0000120704700207047024B16221A604FF031
:1012D000FF307047C0110020024B1F221A604FF0F0
:1012E000FF307047C0110020002070470A490B688A
:1012F00073B1EFF308821844904202D80860184690
:101300007047064B0C221A604FF0FF3318467047A7
:10131000034B0B60EDE700BF70080020C0110020F8
:10132000C4110020002070474FF400534B60002090
:10133000704700BF024B02221A604FF0FF30704727
:10134000C0110020024B0A221A604FF0FF30704794
:10135000C01100200020704708B50D4B98424FF097
:1013600001010AD04FF08060FFF7A4FC00214FF08C
:101370008060BDE80840FFF79DBC4FF00070FFF7AC
:1013800099FC00214FF00070BDE80840FFF792BCC7
:1013900000640040036823F002030360036843F025
:1013A000010303604368DB0707D44FF6FF7301E0D6
:1013B000013B02D04268D207FAD5436813F001031B
:1013C0005BD08B79012B03680CBF43F0800323F0C3
:1013D000800330B40360CB79012B03680CBF43F06A
:1013E000400323F0400303600B7A012B03680CBF1A
:1013F00043F0200323F0200303604B7A012B0368A2
:101400000CBF43F0100323F0100303608B7A012B11
:1014100003680CBF43F0080323F008030360CB7A92
:10142000012B03680CBF43F0040323F004030360A3
:10143000CA788D780B794C790988120642EA857250
:1014400042EA034343EA04534A1E1343C361036859
:1014500023F0010303604368D90707D54FF6FF73F4
:1014600001E0013B02D04268D207FAD4406800F0A4
:10147000010080F0010030BC70471846704700BF83
:101480003A4B827AD3F8001241F00101F0B4C3F86C
:101490000012012101FA02F2D3F81C12D4432140B8
:1014A000C3F81C12017BB1B9D3F80C52C788468827
:1014B0002F492540C3F80C52857A483546EA07463D
:1014C00043F83560857A86880388ED00294443EA2D
:1014D00006434B60017B012930D0C37A23493BBBD3
:1014E000D1F804322340C1F804320389BBB91F4943
:1014F000D1F814321C40C1F81442437B012B05D1B2
:101500001A49D1F81C321A43C1F81C22174AD2F8E2
:10151000003223F00103C2F80032F0BC7047012B07
:10152000EBD11249D1F814321343C1F81432E4E775
:10153000D1F804321343C1F80432D6E70B490788C7
:10154000D1F80C5246880A4B1543C1F80C52857AE3
:10155000483546EA074641F83560857A8688C1886D
:10156000ED002B4441EA06415960B6E700640040B3
:1015700040660040002310B40221032401220471BC
:10158000417102808371C371037243728372C372AB
:101590008370C3705DF8044B704700BF0D4BD3F8E8
:1015A000002242F00102C3F80022D3F8002222F404
:1015B0007C5222F00E02C3F80022D3F8002242EA45
:1015C0000020C3F80002D3F8002222F00102C3F881
:1015D0000022704700640040036819B923F4803387
:1015E0000360704743F48033036070470368A9B910
:1015F00023F080030360D0F8843123F48073C0F8B3
:101600008431D0F8943123F48073C0F89431D0F849
:10161000A43123F48073C0F8A431704743F08003F1
:101620000360D0F8843143F48073C0F88431D0F87B
:10163000943143F48073C0F89431D0F8A43143F46A
:101640008073C0F8A43170478368F0B40446580131
:1016500005D4A3681A0143D50122104601E00022F7
:1016600010461201A318D3F8805105F00105C3F804
:1016700080510D7A55B34E68D3F8807145EAC6059E
:101680004E7A3D433543C3F880518D7A05F00F05FE
:101690008D72D3F8845125F00F05C3F884518E7AEA
:1016A000D3F884513543C3F884512244D1F80B4018
:1016B000C2F88841D1F80F10C2F88C11D3F88021FC
:1016C00042F00102C3F88021F0BC70470F684D7AE8
:1016D000D3F8806145EA47553543C3F88051D4E7D4
:1016E000A368DB0002D502221046BAE70420F0BC52
:1016F000704700BF01291AD015D302290FD1826883
:101700000D4B13400D4A934206D007D90C4A934221
:1017100002D0094A934204D1012070470BB902203C
:101720007047002070478268044B1340EAE78268E4
:10173000034B1340E6E700BF000003100300000462
:101740000003000801290DD007D3022904D18368C2
:1017500043F40003836070477047836843F080035D
:1017600083607047836843F400438360704700BF21
:1017700010B400EB0114D4F8B03103F00403DBB271
:101780001372CBBBD4F8B0315B0D1360D4F8B03119
:1017900003F002035372D4F8B43103F00F039372D1
:1017A000D4F8B44100EB0113240AD474D3F8B8413F
:1017B000D472D3F8B841240A1473D3F8B841240C76
:1017C0005473D3F8B841240E9473D3F8BC41D47346
:1017D000D3F8BC41240A1474D3F8BC41240C5474CB
:1017E000D3F8BC311B0E937459B103695DF8044BF7
:1017F00043F0200303617047D4F8B031DB08536035
:10180000C4E7C3685DF8044B43F02003C36070472E
:1018100021B1036943F0200303617047C36843F0BB
:101820002003C360704700BF31B1012906BF0069C2
:1018300000F0030000207047C06800F0030070470C
:10184000E9B9036823F0030343F00103036043682D
:1018500003F00303012B09D04FF6FF7201E0013AB8
:1018600004D0436803F00303012BF8D1406800F073
:101870000300A0F10100B0FA80F04009704701298F
:1018800003D0022917D000207047036823F0030318
:1018900003604368990707D04FF6FF7301E0013BEF
:1018A00002D042689207FAD1436813F0030F0CBFCD
:1018B000012000207047036823F0030343F0020374
:1018C0000360436803F00303022B09D04FF6FF7255
:1018D00001E0013A04D0436803F00303022BF8D17E
:1018E000406800F00300A0F10200B0FA80F0400967
:1018F000704700BF036823F0030343F00203036053
:10190000406800F00300A0F10200B0FA80F0400946
:10191000704700BF036823F0020303604368990720
:1019200007D54FF6FF7301E0013B02D042689207F2
:10193000FAD4406880F00200C0F34000704700BF56
:10194000806900F0700070478069000E704700BF2A
:101950008069C0F30740704743691AB923EA01015F
:101960004161704719434161704700BF11F4700F26
:1019700007D08369C3F313030B4214BF0120002077
:101980007047CB0107D54368C3F313030B4214BF61
:101990000120002070470A0107D58368C3F31303B1
:1019A0000B4214BF0120002070478B014CBFC3685D
:1019B0000369C3F313030B4214BF012000207047D7
:1019C0000A4B99420CD08A01C1F3130306D44A0191
:1019D00009D40A014CBF836043607047C3607047FD
:1019E0000023836170470361704700BF7000F030CF
:1019F00043690B401ED0402967D00ED9B1F5006F66
:101A00005CD019D8B1F5007F50D0B1F5806F37D0D8
:101A1000B1F5807F27D00020704704294AD018D91B
:101A200010293DD0202937D00829F4D1C068C0F34F
:101A30000010704718467047B1F5803F24D0B1F5CB
:101A4000003F25D0B1F5004FE5D14068C0F38000DC
:101A5000704701290BD00229DDD1C06810F00300C6
:101A600018BF01207047806900F00100704780684E
:101A700000F0013020F08070003018BF0120704766
:101A80008069C0F3800070474068C0F3C0007047B1
:101A90004068C0F3001070470069C0F3C000704791
:101AA000006910F0030018BF012070478069C0F37F
:101AB00040007047C068C0F3C0007047836913F0EE
:101AC000700F14BF0120002070470069C0F30010A0
:101AD000704700BFB1F5807F1ED00DD9B1F5006F02
:101AE00024D013D9B1F5803F25D0B1F5003F2ED0D9
:101AF000B1F5004F1AD0704708291FD00FD92029FF
:101B000022D0402927D1102303617047B1F5007F0F
:101B100002D0B1F5806F1DD10423436070470129C5
:101B20000FD0042918D10823C36070470022042372
:101B30008261436070470823436070471023C3608D
:101B40007047064B8360704708230361704710237A
:101B50004360704770477047704700BF0101010044
:101B6000024A136801331360704700BF140000205D
:101B7000024A136801331360704700BF140000204D
:101B800008B502F023F80C4B0C4A0D4C0D485A6076
:101B9000F026002107220C4D80F82360996026462C
:101BA0001A6022682B689A42FBD033680133336095
:101BB00001F02EFAF5E700BF10E000E07FA2190067
:101BC0007808002000ED00E014000020037A03B143
:101BD0007047F0B4134F144E3D883B8801330446E0
:101BE0009BB2ADB200683B8005EB8505A268E36857
:101BF000616806EB85053E880FC506F007063E8046
:101C00003A887B882069286092B29BB29A4207D1B9
:101C10007B8801339BB27B807B8803F007037B804A
:101C2000F0BC70477C08002020090020037A03B133
:101C30007047F0B4134F144EBD88BB88013304467F
:101C40009BB2ADB20068BB8005EB8505A268E36876
:101C5000616806EB8505BE880FC506F00706BE80E5
:101C6000BA88FB882069286092B29BB29A4207D159
:101C7000FB8801339BB2FB80FB8803F00703FB80EA
:101C8000F0BC70477C080020180A00202DE9F04FB6
:101C9000494BDFF84081494F494CDFF83CA1012610
:101CA00087B0314630461E72FEF794FF31464FF43E
:101CB0000030FEF7B9FF31464FF40010FEF78AFFFF
:101CC00040460722022102F067FB0DF118090722A6
:101CD0004046032102F060FB042349F8183D00252B
:101CE0004046494602234FF0030B8DF804308DF82F
:101CF00007608DF806508DF805B002F0BBFA494632
:101D000040460823009302F0B5FA4FF4E1320C2369
:101D1000314638460292ADF81230ADF80C50ADF8AD
:101D20000E50ADF81050ADF81450FFF795F9384645
:101D300002A9FFF7F3F831463846FFF775F9214B52
:101D4000214863604FF480614FF440334FF00069E5
:101D50004FF48072A161A06021464FF40078504694
:101D6000A3626262C4F830B06561E5612562E56234
:101D70006563A563E560C4F80090C4F8108001F0C5
:101D8000EDFF324638464021FFF71EFA31465046F5
:101D900002F022F80D4B0E48C4F8009040214FF499
:101DA0000032C4F810806562A060E160A2621D701C
:101DB00007B0BDE8F08F00BF7C0800200044004061
:101DC0000C11002004440040080F0020F40E0020F5
:101DD000DC0C002000000240886002402DE9F04346
:101DE000314B324EDFF8C890012487B021460820DD
:101DF0005C7206AFFEF7EEFE21463046092202F085
:101E0000CBFA4FF0020809223046002102F0C4FA52
:101E100047F8148D00250323304639468DF80930E4
:101E20008DF80B408DF808808DF80A5002F022FAE8
:101E300039463046019402F01DFA21464FF00070F9
:101E4000FEF7F2FE142368468DF800308DF801503D
:101E50008DF802508DF8034001F080F806A9102398
:101E600021F80C3D0D22052348468DF810208DF8F1
:101E700011308DF812508DF813408DF814508DF8F4
:101E800015408DF816508DF817508DF80E508DF8BE
:101E90000F50FFF77FFA224641464846FFF75CFDA8
:101EA00007B0BDE8F08300BF7C080020000C0240B2
:101EB000006400402DE9F84F2DED028B8146144659
:101EC000B0EE408AFFF7C0FB804601464846FFF768
:101ED00011FC5CB9431EBDEC028BDBB2032B96BF39
:101EE000204A012052F82300BDE8F88FDFED1E7A6A
:101EF0001E4ADFF880B09668DBF8004028EE278A9B
:101F0000A825BCEEC88A022818EE101A05FB01F5B8
:101F1000E0D1DDB1164F9246DAF80810DBF8002068
:101F2000A2420ED0B54211D90134334603E0BD427E
:101F300004F101040AD9A242A5EB03050C4BF6D12A
:101F40001E468E4207D9711A8D4204D2BDEC028B17
:101F50000220BDE8F88F41464846FFF7CBFB022838
:101F6000DAD0B7E7E85800080024744910E000E030
:101F70007FA219001400002008B5074B5B7A0BB94B
:101F8000FFF72CFF054B00220221202099725A7284
:101F90001A7218605A6008BD7C08002048110020A1
:101FA000704700BFB1F5007F0BD96FF40073CB18F9
:101FB000C3F34623C3EBC313A1F5007101EB432127
:101FC00089B203888B4238BF03F50073591A89B26E
:101FD00001807047184B5B6882B09BB2ADF804304B
:101FE00003B3BDF804300288C3F500739BB2ADF8AB
:101FF0000630BDF806309BB29A420ED2BDF80610EC
:1020000089B28B1AC1F308019BB2018053B10B490D
:1020100043800A44426002B07047BDF806309BB26C
:102020009A4203D80023438002B07047C2F5007380
:1020300000219BB20180E9E788600240080F002080
:102040002DE9F04F85B00026DFF8D880DFF8D8B052
:102050000193914604460F461546B246D8F804202F
:1020600092B2ADF80C20002A3ED0BDF80C20218899
:10207000C2F5007292B2ADF80E20BDF80E2092B2F9
:10208000914242D2BDF80E0080B2421AC0F308005D
:1020900092B2208042B3594495426160628027D257
:1020A000531B9BB2B3F5007F0BD96FF400729A18E3
:1020B000C2F34622C2EBC212A3F5007303EB422324
:1020C0009BB2834288BF00F50070C31A9BB22A46B8
:1020D0002380B81902F07AFE0025019BC5EB0905A3
:1020E0001D8005B0BDE8F08F6168A4F802A0002251
:1020F000B81902F06BFE6288AD1A1644ADB2B6B2E2
:10210000002DEAD0002AA9D1E7E7BDF80E2092B24F
:102110009142E9D9C1F50072A4F800A092B2002062
:10212000B8E700BF88600240080F00202DE9F04F9B
:1021300083B0BDF83040002A00F09C809B46631EAF
:102140009BB240F2FF1A88469A454FF00001DFF833
:10215000A4911746064628BF9A468C46D9F8043003
:102160009BB2ADF80430002B00F08880BDF804303D
:102170003288C3F500739BB2ADF80630BDF8063067
:102180009BB29A42BDF806309BB280F08180981ACB
:10219000C3F3080380B2338000286FD0544B7080A3
:1021A0001A447260002301441C4689B2ADF8023023
:1021B0009E46A3B25D1CA042ADB262D0726818F810
:1021C0000E30125DADF802509A4204BF0EF1010EBE
:1021D0001FFA8EFEBE4504F10104EAD16544ADB29A
:1021E000AA455DD3AF425BD8B1F5007F0BD96FF440
:1021F00000728B18C3F34623A1F50071C3EBC31320
:1022000001EB432399B233888B4238BF03F5007347
:102210005B1A9BB233802A46594630460DF10203C1
:10222000FFF70EFF0024E81B0BF8054058443A4620
:10223000414602F005FF002857D070882146A44689
:1022400000288BD1B1B1B1F5007F0BD96FF40073C9
:10225000CB18C3F34623A1F50071C3EBC31301EB05
:10226000432399B233888B4238D35B1A338003B04F
:10227000BDE8F08F002003B0BDE8F08F0020708033
:1022800090E763441FFA83FC00287FF467AFD9E727
:102290009A42F3D9C2F50070002380B233807BE705
:1022A000491B89B2B1F5007F0BD96FF400740B198B
:1022B000C3F34623C3EBC313A1F5007101EB432124
:1022C00089B233888B4238BF03F500735B1A002153
:1022D00033808C4600287FF441AFB3E703F50073E9
:1022E000591A318003B0BDE8F08F2846C3E700BF1C
:1022F000080F0020886002402DE9F04F87B00024CD
:10230000BDF848800588BDF8407003910093A14650
:10231000A246A446C346884B5B689BB2ADF8143016
:10232000DBB1BDF81430C3F500739BB2ADF81630C5
:10233000BDF816309BB2AB4240F2D080BDF816E03B
:102340001FFA8EFEC5EB0E01CEF3080E89B2A0F87F
:1023500000E0E1B97646002335464380CAEB0C0322
:102360009BB2B3F5007F0BD96FF400729A18C2F3D9
:102370004622C2EBC212A3F5007303EB42239BB2C9
:10238000AB4200F2D380ED1A0580002068E06B4B71
:102390004180EE188C44002546601FFA8CFC2B46C9
:1023A000B9F1010F2BD07BD3B9F1020F3CD001352D
:1023B000ABB29942F4D87546ADE701330CF1010890
:1023C00001909BB2029740465D1EADB2039F16F886
:1023D000059017F80480054403F1010EC145A5EBF3
:1023E00001051FFA8EFE6FD08B421FFA85FA80F02E
:1023F0008F800024A24257D80198029F0024A34551
:1024000011D9DDF844E0F15C0EF804100134A4B2F7
:10241000A34503F1010526D8002F7FD00133418861
:102420009BB28B4270D20024BC4222D30139CB1A1A
:102430009BB2B3F5007F0BD96FF400715A18C2F349
:102440004622C2EBC212A3F5007303EB42239BB2F8
:1024500002889A4238BF02F50072D31A0380012025
:1024600007B0BDE8F08F4188ABB299424CD94668BD
:10247000C9E74668009D16F803E02D5DAE4515D00E
:102480000CF1010A9A44C1EB0A0A1FFA8AFA002FDA
:10249000CCD0013341889BB299424FF000042BD934
:1024A000A2428AD80024AAE773468DE70134A4B279
:1024B000A74203F10105B9D94188ABB28B42B3D32E
:1024C00005884FF0020919E001348B42A4B291D380
:1024D0000198029F05884FF000090FE0BDF8163003
:1024E0009BB2AB420ED2C5F500714FF000030380E2
:1024F00089B24FF0000E2CE70588A14600297FF431
:102500000AAF2BE72E4626E705884FF00109F5E7CD
:102510000198029F05880024A146EFE74288013A0E
:10252000D31A9BB2B3F5007F86D891E705F5007505
:10253000EB1A0380002093E788600240080F002018
:1025400010B5104C2378D3B10F49104801F090FC1E
:102550000028F9D040210E48FEF75EFE0028F3D097
:102560000C490A4801F0A2FC0021084801F034FCA3
:10257000002280210648FEF727FE0023237000205A
:1025800010BD00BFF40E002000002020A06002401B
:10259000004400400000302001B9704770B51D4E66
:1025A00033780C460546D3B11B491C4801F060FC4A
:1025B0000028F9D040211A48FEF72EFE0028F3D05B
:1025C0001849164801F072FC0021144801F004FC7F
:1025D000002280211248FEF7F7FD002333702246C7
:1025E0002946114802F0F2FB10490C480C6101F039
:1025F000B5FB012280210A48FEF7E6FD402108488C
:10260000FEF710FE0121054801F0E6FB01233370BF
:1026100070BD00BFF40E002000002020A06002402A
:102620000044004000003020DC0C00200C11002091
:1026300000B9704738B51A4D2B780446D3B1194903
:10264000194801F015FC0028F9D040211748FEF781
:10265000E3FD0028F3D01649134801F027FC0021C0
:10266000114801F0B9FB002280211048FEF7ACFDB3
:1026700000232B700F490C480C6101F06FFB012205
:1026800080210A48FEF7A0FD40210848FEF7CAFD58
:102690000121054801F0A0FB01232B7038BD00BFCC
:1026A000F40E002000002020A06002400044004002
:1026B000000030200C110020024B1B7A03B1704740
:1026C000FFF7E4BA7C080020024B1B7A03B1704785
:1026D000FFF7DCBA7C08002007EE901A9FED067A1F
:1026E000064BF8EE677A1B68036067EE877AFCEEAC
:1026F000E77AC0ED017A7047CDCCCC3D14000020C4
:10270000064B02681B684068934238BF03F1FF33F1
:102710009B1A834234BF0020012070471400002020
:10272000064A074B10B494681A688460A82303FB18
:1027300001F14260C1605DF8044B704710E000E0B9
:1027400014000020C36853B3174A1849F0B49768BF
:1027500042680D68954224D081688B421AD90132B3
:10276000134E02E0B34213D922469542A3EB010374
:1027700002F101040E49F5D10A46C360456081604B
:10278000974202D2D21B934204D30020F0BC704780
:10279000426081600023C360F0BC012070470120CB
:1027A00070478268ECE700BF10E000E014000020F2
:1027B0007FA21900F0B5134FDFF850E0B968124D51
:1027C000DEF80020A82303FB00F0C0B1BE68DEF8ED
:1027D000004094420ED0884213D901320B4603E0E8
:1027E000A84202F101020BD9A242A0EB0300064B62
:1027F000F6D11946B142E8D98E1BB042E5D2F0BD00
:10280000F0BDF0BD10E000E07FA219001400002030
:1028100007EE900A9FED0E7AF8EE677A30B467EE15
:10282000877A0C4DFCEEE77A296817EE904A2B6800
:102830005A1E8B42A3EB0100A2EB010203D3844298
:10284000F5D830BC70479442F1D830BC704700BF17
:10285000CDCCCC3D14000020254BDA68EAB11A69D2
:102860000AB35A6912B39A691AB3DA6922B31A6AB7
:102870002AB35A6A32B39A6A3AB3DA6A42B31A6B23
:102880004AB3596B51B3996B59B3D96B21B11A6CD7
:1028900052B3FF22104670470C22114603EB81030E
:1028A000D8601046704701221146F7E70222114610
:1028B000F4E703221146F1E704221146EEE7052270
:1028C0001146EBE706221146E8E707221146E5E745
:1028D00008221146E2E709221146DFE70A221146E3
:1028E000DCE70B221146D9E70D221146D6E700BFDF
:1028F0007C0800200D2804D8024B03EB8000002345
:10290000C36070477C08002010B50C4C0C480021B7
:10291000FEF78AFF0B4A002170B10948FEF728FF35
:1029200094F857300D2B04EB8302EFD8D368054899
:10293000002BEBD09847E9E710BD00BF7C080020D2
:1029400000640040C0080020114A538882B09BB246
:10295000ADF8043013889BB2ADF80630BDF8062000
:10296000BDF8043092B29BB29A4209D2BDF806007B
:10297000BDF8043080B20830C01A80B202B070478F
:10298000BDF80630BDF80400181A80B202B07047D6
:102990007C080020F0B4064682B072B61D4D6B88EC
:1029A0009BB2ADF804302B889BB2ADF80630BDF871
:1029B0000620BDF8043092B29BB29A4221D3BDF8F2
:1029C0000630BDF804401C1BA4B2ACB16F88124B9A
:1029D000BFB207EB870703EB87070FCF306068882C
:1029E0007160013080B268806988B260F3603868D5
:1029F000306101F00701698062B6204602B0F0BC88
:102A00007047BDF80640BDF80430A4B20834E41A9B
:102A1000A4B2DAE77C08002020090020F8B5414C78
:102A2000637A002B36D001214FF00070FEF7FCF8DE
:102A3000E2683C4B002A31D01A69002A4ED05A690C
:102A4000002A4ED09A69002A4ED0DA69002A4ED068
:102A50001A6A002A4ED05A6A002A4ED09A6A002A70
:102A60004ED0DA6A002A4ED01B6B002B4ED0626B20
:102A70002C4B002A4DD09A6B002A4DD0DA6B62B1F4
:102A80001B6C002B4BD0284BFF221A700023638055
:102A90002380F8BDFFF7A2F9C5E70C221146234BAE
:102AA0002348214E9A7204EB81014FF6E075C8600D
:102AB0009D8000214FF4087E184601250427A3F8C5
:102AC00000E0DF80D972598019811D735D73327007
:102AD000FEF7D6FC002363802380F8BD0122114657
:102AE000DDE702221146DAE703221146D7E7042286
:102AF0001146D4E705221146D1E706221146CEE75A
:102B000007221146CBE708221146C8E709221146E1
:102B1000C5E70A221146C2E70B221146BFE70D2284
:102B20001146BCE77C08002008110020F80E0020A8
:102B3000CD1B0008094B10B5184600245C73FEF746
:102B40009FFC074B074A1B780D2B9CBF02EB8303AE
:102B5000DC6000235380138010BD00BFF80E0020FE
:102B6000081100207C080020114AD38882B09BB253
:102B7000ADF8043093889BB2ADF80630BDF806205E
:102B8000BDF8043092B29BB29A4209D2BDF8060059
:102B9000BDF8043080B20830C01A80B202B070476D
:102BA000BDF80630BDF80400181A80B202B07047B4
:102BB0007C080020F0B4064682B072B61D4DEB884A
:102BC0009BB2ADF80430AB889BB2ADF80630BDF8CF
:102BD0000620BDF8043092B29BB29A4221D3BDF8D0
:102BE0000630BDF804401C1BA4B2ACB1EF88124BF8
:102BF000BFB207EB870703EB87070FCF3060E8888A
:102C00007160013080B2E880E988B260F3603868B2
:102C1000306101F00701E98062B6204602B0F0BCE5
:102C20007047BDF80640BDF80430A4B20834E41A79
:102C3000A4B2DAE77C080020180A0020F8B5414C5D
:102C4000637A002B36D001214FF00070FDF7ECFFC6
:102C5000E2683C4B002A31D01A69002A4ED05A69EA
:102C6000002A4ED09A69002A4ED0DA69002A4ED046
:102C70001A6A002A4ED05A6A002A4ED09A6A002A4E
:102C80004ED0DA6A002A4ED01B6B002B4ED0626BFE
:102C90002C4B002A4DD09A6B002A4DD0DA6B62B1D2
:102CA0001B6C002B4BD0284BFF221A700023E380B3
:102CB000A380F8BDFFF792F8C5E70C221146234B1D
:102CC0002348214E9A7204EB81014FF6E075C860EB
:102CD0009D8000214FF4487E184601250427A3F863
:102CE00000E0DF80D972598019811D735D733270E5
:102CF000FEF7C6FB0023E380A380F8BD0122114646
:102D0000DDE702221146DAE703221146D7E7042263
:102D10001146D4E705221146D1E706221146CEE737
:102D200007221146CBE708221146C8E709221146BF
:102D3000C5E70A221146C2E70B221146BFE70D2262
:102D40001146BCE77C08002008090020B80A0020D2
:102D50002D1C0008094B10B5184600245C73FEF7C3
:102D60008FFB074B074A1B780D2B9CBF02EB83039D
:102D7000DC600023D380938010BD00BFB80A002020
:102D8000080900207C08002030B5012183B0042010
:102D9000FDF720FF3F250023032201246946074851
:102DA00000958DF804408DF806308DF807308DF8C9
:102DB000052001F05FFA03B030BD00BF00080240FB
:102DC00010B5012182B00420FDF704FF4024002348
:102DD00003226946054800948DF804308DF80730C9
:102DE0008DF8052001F046FA02B010BD000802403F
:102DF000F0B5012183B00846FDF7ECFE01214FF448
:102E00008000FDF7E7FE01214FF48070FDF71AFF07
:102E100002A901250024032341F8085D1A488DF812
:102E200004308DF805308DF8074001F023FA174B78
:102E3000174A1849184F194E1C604FF4806098616A
:102E40004FF40060D8614FF4005018624FF4807066
:102E500058624FF4003098624FF07060DC605C6143
:102E6000DC621D635C639C631D615F609E600C603F
:102E70004C608C60CC601460157154719460146166
:102E80001575D06003B0F0BD00000240D8090020E5
:102E9000DC0E00200C0900204C200140D409002049
:102EA00008B5194800F0C2FE1849174800F056FF4F
:102EB0000121154800F090FF1548FDF727FA154944
:102EC0001548FDF7F1F90023194601221248FDF7D4
:102ED0006FFA01211048FDF7F9FA01210E48FDF7BC
:102EE000EBFA0D480121FDF72BFA0B48FDF7AAFA82
:102EF0000A49054800F0BCFF0028F9D007490248FC
:102F0000BDE8084000F0D2BF70640240D80900203C
:102F10000C090020DC0E00200020014020000020D1
:102F2000704700BF024B5B7A03B17047FEF756BF94
:102F30007C080020024B5B7A03B17047FEF74EBF5E
:102F40007C080020704700BF40F0BF60024B40F497
:102F50000030D860704700BF00ED00E0C3785BB977
:102F6000037818485A09203203F01F03012101FA9F
:102F700003F340F822307047134BF0B4D968477818
:102F8000827804780F4EC943C1F30221C1F10405D0
:102F9000EDB20F2307FA05F50B41EDB213402B43B9
:102FA00004F1604202F561421B01DBB282F800339A
:102FB0000378012203F01F015B098A4046F82320B1
:102FC000F0BC704700E100E000ED00E021F060415E
:102FD00021F07F01014B08439860704700ED00E04D
:102FE000044A136919B923EA0000106170471843B5
:102FF0001061704700ED00E0044A136804280CBF1C
:1030000043F0040323F004031360704710E000E072
:103010002DE9F04FAA4EAB4CAB4D83B03046FFF7D5
:10302000B9FCAA4B2081B6F80BA0326822600B369F
:1030300028461E60A4F80AA0FFF7BCFDA4492A6830
:10304000EB7A62600B350D60A24DA3742F6AA081EC
:103050001AF0080F14BF03F0010200227B1C95F840
:1030600029309C4E18BF0137D04618BF2F62002B65
:1030700040F084804FF0000A4FF0000BC6E900AB2F
:10308000012123756375A375E375237686F83030C7
:103090000422052386F8291086F82A2086F82D3088
:1030A000EB8C8C4940F6FE72934202D801339BB2FE
:1030B000CB8495F83110874A002943D1012302209F
:1030C000617682F8313082F8333082F83200824AF9
:1030D000277D1760814E677D37608149A67D814BD2
:1030E000E77D81480E60217E667E1F60743B06602E
:1030F00051611B68E374FFF7D3FE7C4BE27C1B88B5
:1031000095F82810E38142EA4300914220827148F9
:103110005AD0774E317801290DD0764B76491B88ED
:1031200021F80B3900229FED750A7548FEF7C2FEA3
:10313000E27CE3890121317085F82820AB8403B05B
:10314000BDE8F08F92F832000128C8F3011141D098
:10315000012900F0FC8092F83300012800F08E80F5
:1031600040F6B73201209342607601D80229AED0F2
:103170000122002385F833206376A8E796F82A9089
:10318000B9F1020F33D0B9F1030F00F0BD80B9F1EE
:10319000010F5AD042B100220023D6E9000101F00C
:1031A000C3FD002840F07D8195F82D30013B072BB1
:1031B00000F24183DFE813F06D006D006D006D00DB
:1031C000E0016D0006024002818C8B42A1D10021FA
:1031D000474EB0E7012900F0FD800023022182F86C
:1031E000330082F83430637682F832106FE796ED60
:1031F000007B002251EC170B00238DED007B01F0CA
:1032000093FD8246002800F0AB8096F83030002B0A
:1032100000F02F815A1E93422CBFD2B20022394FA8
:1032200085F830200023012200260321C5E900672C
:1032300085F82C302B626375A375E375237685F8CA
:103240002A1085F82B2022752AE7C72F7FF628AF92
:103250000027032186F82A100022D6E90001294B15
:1032600086F82B90376284F814906775A775E77518
:10327000277601F03FF9C6E9000111E70023022992
:103280006376104E7FF423AF82F83310D3847076C8
:103290001DE700260121092085F82D0085F82E1054
:1032A00021750022D5E90001164B2E626675A675C0
:1032B000E675267601F01EF9C5E90001F0E600BFCB
:1032C000C009002060110020C80A00201C0900204D
:1032D000140A0020881100208002414284024142E9
:1032E000880241428C02414290024142D4090020AE
:1032F0007C11002070110020531100200AD7A33B3D
:10330000006400400000F03F96ED007B0022C44BBB
:1033100051EC170B8DED007B01F006FD8246002875
:103320006ED0DFF80CB3002301224FF0000A022117
:10333000C6E900AB86F82B3033626375A375E3757D
:10334000237686F82A1086F82C202275A8E600231A
:1033500082F8321082F8341082F833306376B6E6A1
:1033600096F82CB0BBF1020F00F0E581BBF1030F22
:1033700000F0AC80BBF1010F00F0B4814FF0807E13
:103380000022A84BC4F814E0D6E9020101F064FA67
:1033900041EC100B01F018F851EC100B01F0F6FCA9
:1033A000B842DFF890923FF67BAE0322012386F805
:1033B0002C2089F81630DDE90001C6F820A089F834
:1033C00017A089F818A00022974B01F091F8C6E9E0
:1033D000000165E692F83400C8F38618A8F12808C1
:1033E00001280FFA88F800F0708140F6B732934256
:1033F000617652D90122002385F83420637666E68F
:1034000096F82BB0BBF1020F00F08B80BBF1030FDD
:1034100000F0E581BBF1010F00F0B8814FF0807E34
:103420000022804BC4F814E0D6E9020101F014FA3E
:1034300041EC100B00F0C8FF51EC100B01F0A6FCA2
:10344000B842DFF8F0913FF62BAE012386F82B301F
:1034500089F81430DDE90001C6F820A089F817A02A
:1034600089F818A00022704B01F044F8C6E9000169
:1034700016E69FED657B0421052286F82C30237526
:103480006375A375E375237686ED007B86F830308F
:1034900086F82A1086F82D2002E6B8F1010FA9DC83
:1034A00015E65BA1D1E9000100230122C6E9020172
:1034B000022186F82F3086F82E3086F82D303362C0
:1034C00086F82A20227686F83010E9E54FF4803E0F
:1034D0000022544BC4F814E0D6E9020101F0BCF913
:1034E00041EC100B00F070FF51EC100B01F04EFCA2
:1034F000B842DFF840B13FF6D3AD0127DDE9000166
:1035000086F82C90C6F820A08BF816A08BF818A08F
:103510000022454B8BF8157000F0EAFFC6E9000168
:10352000BEE54FF4807E00223E4BC4F814E0D6E99D
:10353000020101F091F941EC100B00F045FF51EC54
:10354000100B01F023FCB842DFF8E8B03FF6A8AD5D
:103550000127DDE9000186F82B90C6F820A08BF842
:1035600015A08BF818A000222F4B8BF8167000F0D6
:10357000C1FFC6E9000193E50AF0070A0023BAF18A
:10358000010F636100F0C081BAF1020F00F0CA813F
:10359000BAF1040F00F0ED82BAF1050F00F0F782E6
:1035A000BAF1030F7FF47CAD1BA7D7E900670020B9
:1035B0004FF080410223C5E90267C5E9060185F89D
:1035C0002D306DE50022174B184ED5E9060101F0AC
:1035D00043F941EC100B00F0F7FE51EC100B01F039
:1035E000D5FBB8423FF65CAD002300200021052248
:1035F000C6E9000186F82D2023756375A375E37570
:10360000237686F830304BE5000000000000000013
:10361000081F7CF0C1079F3F82734694F6069F3FC8
:1036200000003740000059400000F03F88110020A2
:10363000000036406011002095ED007B0022002341
:1036400051EC170B8DED007B01F06EFBBE4E8146F9
:10365000002840F0388196F82FA0BAF1020F00F050
:10366000D881BAF1030F00F0A781BAF1010F00F081
:1036700079814FF0807E0022B44BC4F814E0D6E983
:10368000020101F0E9F841EC100B00F09DFE51EC55
:10369000100B01F07BFB8742DFF8B8A2FFF400AD0E
:1036A0000322012386F82F208AF81630DDE9000175
:1036B000C6F820908AF817908AF818900022A44B38
:1036C00000F016FFC6E90001EAE40023B8F1010F9B
:1036D0006376A0493FF7FBAC0226D384487682F894
:1036E0003460F4E40022994BC4F814B0D6E9020126
:1036F00001F0B2F841EC100B00F066FE51EC100B3B
:1037000001F044FBB842DFF84C923FF6C9AC042705
:10371000DDE90001C6F820A089F814A089F817B0E7
:1037200089F818A000228A4B86F82C7000F0E0FE81
:10373000C6E90001B4E44FF4807E0022834BC4F854
:1037400014E0D6E9020101F087F841EC100B00F01B
:103750003BFE51EC100B01F019FBB842DFF8F4917D
:103760003FF69EAC012386F82C3089F81430DDE951
:103770000001C6F820A089F815A089F818A0002239
:10378000734B00F0B5FEC6E9000189E400226F4BDF
:10379000C4F814B0D6E9020101F05EF841EC100B58
:1037A00000F012FE51EC100B01F0F0FAB842DFF815
:1037B000A4913FF675AC0227DDE90001C6F820A010
:1037C00089F814A089F815B089F818A00022604B78
:1037D00086F82B7000F08EFEC6E9000160E44FF41D
:1037E000803E0022594BC4F814E0D6E9020101F0F2
:1037F00033F841EC100B00F0E7FD51EC100B01F039
:10380000C5FAB842DFF84C913FF64AAC04220123D6
:1038100086F82B2089F81730DDE90001C6F820A0D2
:1038200089F816A089F818A00022494B00F062FE22
:10383000C6E9000134E495ED007B0022464B424E80
:1038400051EC170B8DED007B01F06EFA81460028DC
:1038500042D196F82EA0BAF1020F00F00681BAF11B
:10386000030F00F05981BAF1010F00F02B814FF0E6
:10387000807E0022354BC4F814E0D6E9020100F046
:10388000EBFF41EC100B00F09FFD51EC100B01F031
:103890007DFA8742DFF8BCA0FFF402AC012386F872
:1038A0002E308AF81430DDE90001C6F820908AF83D
:1038B00017908AF818900022254B00F01BFEC6E9ED
:1038C0000001FFF7EDBB0023072286F82F3033629B
:1038D00086F82D20FFF7E4BBDFF884B000234FF01B
:1038E000000A082004210122C6E900AB86F82E3028
:1038F000336223756375A375237686F82D0086F8E9
:103900002F10E275FFF7CCBB0DA7D7E90067104970
:1039100000200623C5E90267C5E9060185F82D30B8
:10392000FFF7BEBB06A7D7E900670C4900200123BB
:10393000C5E90267C5E9060185F82D30FFF7B0BB80
:1039400082734694F6069F3F88110020000059407C
:103950000000F03F601100200000374000001040E0
:10396000000036400022964BC4F814A0D6E90201AC
:1039700000F072FF41EC100B00F026FD51EC100B33
:1039800001F004FA8742DFF840B2FFF489AB042764
:10399000DDE90001C6F820908BF814908BF817A091
:1039A0008BF818900022874B86F82F7000F0A0FD4E
:1039B000C6E90001FFF774BB4FF4803E0022804B44
:1039C000C4F814E0D6E9020100F046FF41EC100B08
:1039D00000F0FAFC51EC100B01F0D8F98742DFF847
:1039E000E8A1FFF45DAB0222012386F82F208AF8BC
:1039F0001530DDE90001C6F820908AF816908AF8A3
:103A0000189000226F4B00F073FDC6E90001FFF72C
:103A100047BB4FF4807E0022694BC4F814E0D6E91E
:103A2000020100F019FF41EC100B00F0CDFC51EC4D
:103A3000100B01F0ABF98742DFF88CA1FFF430AB3B
:103A4000012386F82F308AF81430DDE90001C6F82A
:103A500020908AF815908AF818900022594B00F0AF
:103A600047FDC6E90001FFF71BBB4FF4807E002233
:103A7000534BC4F814E0D6E9020100F0EDFE41EC2E
:103A8000100B00F0A1FC51EC100B01F07FF9874204
:103A9000DFF834A1FFF404AB0322012386F82E20C3
:103AA0008AF81630DDE90001C6F820908AF81590F2
:103AB0008AF818900022434B00F01CFDC6E9000173
:103AC000FFF7EEBA00223E4BC4F814A0D6E902017B
:103AD00000F0C2FE41EC100B00F076FC51EC100B34
:103AE00001F054F98742DFF8E0B0FFF4D9AA0227C9
:103AF000DDE90001C6F820908BF814908BF815A032
:103B00008BF8189000222F4B86F82E7000F0F2FCF4
:103B1000C6E90001FFF7C4BA4FF4803E0022284BEB
:103B2000C4F814E0D6E9020100F096FE41EC100B57
:103B300000F04AFC51EC100B01F028F98742DFF845
:103B400088A0FFF4ADAA0422012386F82E208AF86B
:103B50001730DDE90001C6F820908AF816908AF83F
:103B600018900022174B00F0C5FCC6E90001FFF7D2
:103B700097BA0FA7D7E90067002000210323C5E902
:103B80000267C5E9060185F82D30FFF789BA0AA753
:103B9000D7E90067002000210423C5E90267C5E9D1
:103BA000060185F82D30FFF77BBA00BFAFF3008028
:103BB00082734694F6069F3F0074982F2FC08E3F65
:103BC000000059400000F03F6011002038B500238C
:103BD000114C124D12482B60194638222360636045
:103BE000A360E36023616361A36101F089F90D4B78
:103BF00001221A70FEF768FDFEF710FFFFF71EF8AE
:103C0000FFF7C2F8FFF7DCF8FFF7F2F8FEF7B4F9B8
:103C1000BDE83840FFF78EB9601100208011002008
:103C2000881100207C110020704700BF02683749CE
:103C3000002310B422F001022124884202600360B4
:103C400043608360C360036144614DD0304B984250
:103C500035D0304B984239D02F4B98423DD02F4B26
:103C6000984247D02E4B984248D02E4B98421DD0B8
:103C70002D4B98421ED02D4B984243D02C4B98424E
:103C80001DD02C4B984221D02B4B984225D02B4B4A
:103C900098422FD02A4B984230D02A4B984205D0D8
:103CA000294B984206D05DF8044B7047274A43F8E9
:103CB000942CF8E74FF03D5243F8AC2CF3E74FF467
:103CC000746243F8202C5DF8044B70474FF4741273
:103CD00043F8382C5DF8044B70474FF0746243F89A
:103CE000502C5DF8044B7047194B5DF8044B3D2296
:103CF0009A607047174A43F8642CD4E7164A43F891
:103D00007C2CD0E73D2243F8082CCCE71060024021
:103D100028600240406002405860024070600240EB
:103D200088600240A0600240B86002401064024017
:103D300028640240406402405864024070640240BB
:103D400088640240A0640240B864024000003D2044
:103D5000006002403D000020400F002001F11802E9
:103D6000F0B48CCACD680E684C692E4326431643C6
:103D70001E434A6A8B6A4D6B8C6B3E4316431E434F
:103D80000B4A0368CF6A35432C431A402243026032
:103D90000B6B42690D694C6889683B4322F007024E
:103DA0001343436145608460C160F0BC704700BF4D
:103DB0003F801CF00023036043608360C3600361A5
:103DC00043618361C361036243628362C3620363CD
:103DD00043638363704700BF036819B923F001038D
:103DE0000360704743F0010303607047036819B92B
:103DF00023F400430360704743F4004303607047BB
:103E0000036819B923F020030360704743F02003CF
:103E10000360704741607047406880B2704700BFE0
:103E2000036822B923F4002303600161704743F45F
:103E30000023036001617047036819B923F48023EC
:103E40000360704743F48023036070470AB9C16080
:103E500070470161704700BF0068C0F3C040704701
:103E6000006800F001007047406900F038007047BA
:103E70000B4B0C4A10B40C4CA04294BF1846104691
:103E80008B004CBF436803685DF8044B21F0F021C0
:103E900021F08211194214BF01200020704700BF99
:103EA00000600240006402400F64024010B4094BFD
:103EB000094C0A4AA04294BF1846104611F0005F10
:103EC00021F0F02121F0821114BFC16081605DF802
:103ED000044B7047006002400F64024000640240DF
:103EE0000B060CD54369AAB143F0800380294361D6
:103EF0000FD0036801F01E0119430160704780294B
:103F000007D0002AF5D1036801F01E0123EA010160
:103F10000160704723F0800380294361F3D170472B
:103F200070B4104A104E114C21F0F02323F0C31549
:103F3000B04298BF14468DB1006800F01E0000EA40
:103F4000D12289004CBF6068206823F0821318409A
:103F500002D0101C18BF012070BC7047406900F0EF
:103F60008002EEE7006002400F64024000640240FD
:103F700010B4094B094C0A4AA04294BF1846104697
:103F800011F0005F21F0F02121F0821114BFC16017
:103F900081605DF8044B7047006002400F6402408E
:103FA0000064024039493A4BD1F88820394842F43C
:103FB0007002C1F888201A68002142F001021A60DC
:103FC00099601A6822F0847222F480321A60586074
:103FD0001A6882B022F480221A60D960009101919F
:103FE0001A6842F480321A601A4603E0009BB3F567
:103FF000A04F09D0136803F400330193009B0133F1
:104000000093019B002BF1D0214B1B6813F400336C
:1040100018BF01230193019B012B05D01B4B4FF0CF
:1040200000629A6002B07047194B1B491A6C1B481A
:1040300042F080521A640A6842F440420A609A6868
:104040009A609A6842F400429A609A6842F4A052D8
:104050009A6058601A6842F080721A601A461168B5
:104060000B4B8901FBD50E4A40F2057111609A682D
:1040700022F003029A609A6842F002029A601A469D
:10408000936803F00C03082BFAD1C7E700ED00E0BA
:1040900000380240103000240070004008544007EF
:1040A000003C02401848836803F00C03042B28D01E
:1040B000082B09D0154B144A15499268C2F3031214
:1040C0008A5CD3400B6170474368416813F4800FEA
:1040D000436818BF0F4801F03F020CBF0B49B0FB0B
:1040E000F2F1C3F3881308BFB1FBF2F101FB03F255
:1040F000054B5B68C3F3014301335B00B2FBF3F391
:10410000D9E7044BD7E700BF003802400024F40091
:104110001800002000127A0008B54B4B98422AD0B4
:104120004A4B984231D04A4B984238D0494B98423A
:104130003FD0494B984246D0484B98424DD0484BCF
:10414000984254D0474B98425BD0474B984262D03C
:10415000464B98426BD0464B984200D008BD012197
:104160004FF48060FCF77CFD00214FF48060BDE8D7
:104170000840FCF775BD01210846FCF771FD0021E0
:104180000120BDE80840FCF76BBD01210220FCF7CF
:1041900067FD00210220BDE80840FCF761BD012158
:1041A0000420FCF75DFD00210420BDE80840FCF779
:1041B00057BD01210820FCF753FD00210820BDE870
:1041C0000840FCF74DBD01211020FCF749FD0021FE
:1041D0001020BDE80840FCF743BD01212020FCF77A
:1041E0003FFD00212020BDE80840FCF739BD01213A
:1041F0004020FCF735FD00214020BDE80840FCF7D9
:104200002FBD01218020FCF72BFD00218020BDE87F
:104210000840FCF725BD01214FF48070FCF720FD1C
:1042200000214FF48070BDE80840FCF719BD012162
:104230004FF40070FCF714FD00214FF40070BDE84E
:104240000840FCF70DBD00BF000002400004024022
:1042500000080240000C024000100240001402401E
:1042600000180240001C02400020024000240240CE
:104270000028024000222DE9F0471346D1F800E063
:1042800001274FF0030C04E00133102B02F102026E
:1042900029D007FA03F434EA0E05F5D1D0F80080EE
:1042A0000E790CFA02F5ED4308EA0508C0F8008023
:1042B000D0F8009006FA02FA013E4AEA0909012EF6
:1042C0000CFA02F8C0F800900FD9C568CC7925EA3D
:1042D0000805C560C568944001332C43102BC460A9
:1042E00002F10202D5D1BDE8F087866891F8059009
:1042F0003540856086688D7909FA02F949EA060633
:104300008660466826EA04044460466805FA03F4B9
:10431000A4B234434460D8E700234FF6FF72026032
:10432000037143718371C371704700BF82B04FF452
:1043300080330193019B0B430193019BC361C161D6
:10434000019BC361C3690193C369019302B07047C4
:104350000369194214BF012000207047006980B230
:10436000704700BF4369194214BF01200020704705
:10437000406980B2704700BF018370474183704736
:104380000AB9418370470183704700BF416170479C
:104390004369594041617047CB0800EB830001F04D
:1043A000070110B48900046A0F238B4024EA030339
:1043B0000362036A5DF8044B8A4042EA030101622A
:1043C000704700BF0000000051EC100BC1F30A530E
:1043D0002DE9F041A3F2FF35132D0C460F4610EEE8
:1043E000106A22DC002D52DB3D4B43FA05F801EA4E
:1043F000080303431ED038A3D3E9002300F07AF862
:104400000022002300F0B8FC48B1002C04DD4FF47A
:10441000801343FA05F52F4427EA080400262346B3
:10442000324643EC102BBDE8F081332D06DDB5F5A7
:10443000806F3ED041EC100BBDE8F081A3F2134336
:104440004FF0FF3828FA03F810EA080FF2D022A341
:10445000D3E9002300F04EF80022002300F08CFC8A
:104460000028DCD0002C09DD142D31D00123C5F14A
:10447000340503FA05F5AE1928BFFF183C4626EAB5
:1044800008062346324643EC102BBDE8F08112A308
:10449000D3E9002300F02EF80022002300F06CFC8A
:1044A0000028BCD0002C0FDB26430BD000260D4C7F
:1044B000B5E710EE102A0B4600F01CF841EC100B8B
:1044C000BDE8F0813446AAE700264FF00044A6E795
:1044D0000137D3E7AFF300809C7500883CE4377E5A
:1044E000FFFF0F000000F03F81F0004102E000BF3D
:1044F00083F0004330B54FEA41044FEA430594EAA4
:10450000050F08BF90EA020F1FBF54EA000C55EADE
:10451000020C7FEA645C7FEA655C00F0E2804FEAAF
:104520005454D4EB5555B8BF6D420CDD2C4480EA91
:10453000020281EA030382EA000083EA010180EAC1
:10454000020281EA0303362D88BF30BD11F0004F0F
:104550004FEA01314FF4801C4CEA113102D0404245
:1045600061EB410113F0004F4FEA03334CEA133380
:1045700002D0524263EB430394EA050F00F0A78098
:10458000A4F10104D5F1200E0DDB02FA0EFC22FA93
:1045900005F2801841F1000103FA0EF2801843FA87
:1045A00005F359410EE0A5F120050EF1200E012A78
:1045B00003FA0EFC28BF4CF0020C43FA05F3C018B6
:1045C00051EBE37101F0004507D54FF0000EDCF12F
:1045D000000C7EEB00006EEB0101B1F5801F1BD3D8
:1045E000B1F5001F0CD349085FEA30004FEA3C0CDC
:1045F00004F101044FEA445212F5800F80F09A80D2
:10460000BCF1004F08BF5FEA500C50F1000041EBD5
:10461000045141EA050130BD5FEA4C0C404141EBD9
:10462000010111F4801FA4F10104E9D191F0000F00
:1046300004BF01460020B1FA81F308BF2033A3F183
:104640000B03B3F120020CDA0C3208DD02F1140C7A
:10465000C2F10C0201FA0CF021FA02F10CE002F1B5
:104660001402D8BFC2F1200C01FA02F120FA0CFCAE
:10467000DCBF41EA0C019040E41AA2BF01EB0451F7
:10468000294330BD6FEA04041F3C1CDA0C340EDCF5
:1046900004F11404C4F1200220FA04F001FA02F338
:1046A00040EA030021FA04F345EA030130BDC4F1F6
:1046B0000C04C4F1200220FA02F001FA04F340EAEB
:1046C0000300294630BD21FA04F0294630BD94F09C
:1046D000000F83F4801306BF81F480110134013D83
:1046E0004EE77FEA645C18BF7FEA655C29D094EAF4
:1046F000050F08BF90EA020F05D054EA000C04BF72
:104700001946104630BD91EA030F1EBF002100205C
:1047100030BD5FEA545C05D14000494128BF41F0FB
:10472000004130BD14F580043CBF01F5801130BD5F
:1047300001F0004545F0FE4141F470014FF00000EA
:1047400030BD7FEA645C1ABF194610467FEA655C9B
:104750001CBF0B46024650EA013406BF52EA03353D
:1047600091EA030F41F4002130BD00BF90F0000F2B
:1047700004BF0021704730B54FF4806404F1320467
:104780004FF000054FF0000150E700BF90F0000F20
:1047900004BF0021704730B54FF4806404F1320447
:1047A00010F0004548BF40424FF000013EE700BF17
:1047B00042004FEAE2014FEA31014FEA02701FBFA7
:1047C00012F07F4393F07F4F81F06051704792F079
:1047D000000F14BF93F07F4F704730B54FF46074F3
:1047E00001F0004521F0004120E700BF50EA01023E
:1047F00008BF704730B54FF000050AE050EA0102EB
:1048000008BF704730B511F0004502D5404261EB5A
:1048100041014FF4806404F132045FEA915C3FF49B
:10482000DCAE4FF003025FEADC0C18BF03325FEA34
:10483000DC0C18BF033202EBDC02C2F1200300FAE9
:1048400003FC20FA02F001FA03FE40EA0E0021FA0E
:1048500002F11444C1E600BF70B54FF0FF0C4CF4F8
:10486000E06C1CEA11541DBF1CEA135594EA0C0FAE
:1048700095EA0C0F00F0DEF82C4481EA030621EAE9
:104880004C5123EA4C5350EA013518BF52EA033524
:1048900041F4801143F4801338D0A0FB02CE4FF0D6
:1048A0000005E1FB02E506F00042E0FB03E54FF006
:1048B0000006E1FB03569CF0000F18BF4EF0010EFE
:1048C000A4F1FF04B6F5007F64F5407404D25FEAFA
:1048D0004E0E6D4146EB060642EAC62141EA5551AD
:1048E0004FEAC52040EA5E504FEACE2EB4F1FD0CEF
:1048F00088BFBCF5E06F1ED8BEF1004F08BF5FEA6D
:10490000500E50F1000041EB045170BD06F000461E
:1049100046EA010140EA020081EA0301B4EB5C04CB
:10492000C2BFD4EB0C0541EA045170BD41F48011C3
:104930004FF0000E013C00F3AB8014F1360FDEBFE8
:10494000002001F0004170BDC4F10004203C35DAC4
:104950000C341BDC04F11404C4F1200500FA05F347
:1049600020FA04F001FA05F240EA020001F00042E8
:1049700021F0004110EBD37021FA04F642EB06015E
:104980005EEA430E08BF20EAD37070BDC4F10C0488
:10499000C4F1200500FA04F320FA05F001FA04F24C
:1049A00040EA020001F0004110EBD37041F1000138
:1049B0005EEA430E08BF20EAD37070BDC4F1200543
:1049C00000FA05F24EEA020E20FA04F301FA05F2AB
:1049D00043EA020321FA04F001F0004121FA04F253
:1049E00020EA020000EBD3705EEA430E08BF20EA23
:1049F000D37070BD94F0000F0FD101F0004640005D
:104A000041EB010111F4801F08BF013CF7D041EADE
:104A1000060195F0000F18BF704703F000465200E2
:104A200043EB030313F4801F08BF013DF7D043EAB3
:104A30000603704794EA0C0F0CEA135518BF95EA69
:104A40000C0F0CD050EA410618BF52EA4306D1D1F0
:104A500081EA030101F000414FF0000070BD50EA0F
:104A6000410606BF1046194652EA430619D094EA99
:104A70000C0F02D150EA013613D195EA0C0F05D183
:104A800052EA03361CBF104619460AD181EA0301D7
:104A900001F0004141F0FE4141F470014FF000008F
:104AA00070BD41F0FE4141F4780170BD70B54FF02A
:104AB000FF0C4CF4E06C1CEA11541DBF1CEA1355AA
:104AC00094EA0C0F95EA0C0F00F0A7F8A4EB05048C
:104AD00081EA030E52EA03354FEA013100F0888083
:104AE0004FEA03334FF0805545EA131343EA12634C
:104AF0004FEA022245EA111545EA10654FEA002601
:104B00000EF000419D4208BF964244F1FD0404F5B9
:104B1000407402D25B084FEA3202B61A65EB030515
:104B20005B084FEA32024FF480104FF4002CB6EBD2
:104B3000020E75EB030E22BFB61A754640EA0C0052
:104B40005B084FEA3202B6EB020E75EB030E22BF92
:104B5000B61A754640EA5C005B084FEA3202B6EBD3
:104B6000020E75EB030E22BFB61A754640EA9C0092
:104B70005B084FEA3202B6EB020E75EB030E22BF62
:104B8000B61A754640EADC0055EA060E18D04FEA20
:104B9000051545EA16754FEA06164FEAC30343EAC0
:104BA00052734FEAC2025FEA1C1CC0D111F4801F8D
:104BB0000BD141EA00014FF000004FF0004CB6E786
:104BC00011F4801F04BF01430020B4F1FD0C88BF25
:104BD000BCF5E06F3FF6AFAEB5EB030C04BFB6EB30
:104BE000020C5FEA500C50F1000041EB045170BD23
:104BF0000EF0004E4EEA113114EB5C04C2BFD4EB50
:104C00000C0541EA045170BD41F480114FF0000ED3
:104C1000013C90E645EA060E8DE60CEA135594EA4F
:104C20000C0F08BF95EA0C0F3FF43BAF94EA0C0F52
:104C30000AD150EA01347FF434AF95EA0C0F7FF4C7
:104C400025AF104619462CE795EA0C0F06D152EA1B
:104C500003353FF4FDAE1046194622E750EA4106FF
:104C600018BF52EA43067FF4C5AE50EA41047FF410
:104C70000DAF52EA43057FF4EBAE12E74FF0FF3C75
:104C800006E000BF4FF0010C02E000BF4FF0010C46
:104C90004DF804CD4FEA410C7FEA6C5C4FEA430CBF
:104CA00018BF7FEA6C5C1BD001B050EA410C0CBF0E
:104CB00052EA430C91EA030F02BF90EA020F002070
:104CC000704710F1000F91EA030F58BF994208BFD7
:104CD00090422CBFD8176FEAE37040F00100704794
:104CE0004FEA410C7FEA6C5C02D150EA013C07D1EB
:104CF0004FEA430C7FEA6C5CD6D152EA033CD3D036
:104D00005DF8040B704700BF8446104662468C462F
:104D10001946634600E000BF01B5FFF7B7FF002862
:104D200048BF10F1000F01BD4DF808EDFFF7F4FF8B
:104D30000CBF012000205DF808FB00BF4DF808ED16
:104D4000FFF7EAFF34BF012000205DF808FB00BF39
:104D50004DF808EDFFF7E0FF94BF012000205DF85B
:104D600008FB00BF4DF808EDFFF7CEFF94BF012010
:104D700000205DF808FB00BF4DF808EDFFF7C4FF09
:104D800034BF012000205DF808FB00BF4A0011D2AB
:104D900012F5001211D20DD56FF47873B3EB625295
:104DA0000ED44FEAC12343F0004343EA505323FAA1
:104DB00002F070474FF00000704750EA013002D116
:104DC0004FF0FF3070474FF000007047844641EAD3
:104DD000000313F003036DD1403A41D351F8043B73
:104DE00040F8043B51F8043B40F8043B51F8043BC5
:104DF00040F8043B51F8043B40F8043B51F8043BB5
:104E000040F8043B51F8043B40F8043B51F8043BA4
:104E100040F8043B51F8043B40F8043B51F8043B94
:104E200040F8043B51F8043B40F8043B51F8043B84
:104E300040F8043B51F8043B40F8043B51F8043B74
:104E400040F8043B51F8043B40F8043B51F8043B64
:104E500040F8043B51F8043B40F8043B403ABDD2D3
:104E6000303211D351F8043B40F8043B51F8043B75
:104E700040F8043B51F8043B40F8043B51F8043B34
:104E800040F8043B103AEDD20C3205D351F8043B04
:104E900040F8043B043AF9D2043208D0D2071CBFD0
:104EA00011F8013B00F8013B01D30B8803806046F9
:104EB000704700BF082A13D38B078DD010F003036F
:104EC0008AD0C3F10403D21ADB071CBF11F8013BDF
:104ED00000F8013B80D331F8023B20F8023B7BE72E
:104EE000043AD9D3013A11F8013B00F8013BF9D259
:104EF0000B7803704B7843708B78837060467047F3
:104F000070B4840746D0541E002A41D0CDB2034667
:104F100002E0621EE4B3144603F8015B9A07F8D17D
:104F2000032C2ED9CDB245EA05250F2C45EA0545BF
:104F300019D903F110022646103E0F2E42F8105CDC
:104F400042F80C5C42F8085C42F8045C02F1100282
:104F5000F2D8A4F1100222F00F0204F00F04103274
:104F6000032C13440DD91E462246043A032A46F860
:104F7000045BFAD8221F22F003020432134404F027
:104F800003042CB1C9B21C4403F8011BA342FBD19A
:104F900070BC704714460346C2E700BF38B50C46E4
:104FA0000968054609B1FFF7F9FF21462846BDE823
:104FB000384000F0E3B800BF204B1B6883423CD070
:104FC000C36C70B505468BB10026995939B10C6890
:104FD000284600F0D3F82146002CF8D1EB6C0436BB
:104FE000802EF2D11946284600F0C8F8296C11B17C
:104FF000284600F0C3F8D5F8481151B105F5A6765A
:10500000B14206D00C68284600F0B8F8A642214606
:10501000F8D1696D11B1284600F0B0F8AB6B03B957
:1050200070BDEB6B28469847D5F8E0120029F7D001
:105030002846BDE87040FFF7B1BF70475804002014
:10504000002A41D040EA010313F00303F0B425D154
:10505000032A23D904680D68AC421FD1043A35D025
:10506000A4F1013525EA040414F0803F31D1071D75
:105070000D1D0DE057F8043B0E68A3F10134B34257
:1050800024EA03040AD1043A20D014F0803F23D14B
:10509000032A2946384605F10405EBD803780C7835
:1050A0009C4202F1FF320CD182B114B916E06AB110
:1050B0007BB110F8013F11F8014FA34202F1FF321A
:1050C000F5D0181BF0BC7047104670471046F0BC76
:1050D00070471846F0BC70470020F3E72046F1E720
:1050E000F8B5234F0C46064600F0E8FBBB685D6848
:1050F00025F00305291B01F6EF7121F47F6121F0F2
:105100000F01A1F58054B4F5805F07DB0021304624
:1051100000F0D8FBBB682B44984204D0304600F026
:10512000CFFB0020F8BD6142304600F0CBFB0130E0
:105130000DD0104BBA6819682D1B45F0010530469B
:10514000091B5560196000F0BBFB0120F8BD002170
:10515000304600F0B7FBBA68831A0F2BDEDD064C31
:105160000449246843F00103001B53600860D5E73D
:105170005C040020E008002068080020002945D0D9
:105180002DE9F0410D46804600F098FB55F8047C6F
:105190006A4927F00103A5F10804E2188E685068F7
:1051A000B24220F0030062D0FE0750600BD455F8E5
:1051B000087CE41B01F1080EA56875453B446FD0DF
:1051C000E768EF60BD6015186D68ED0742D543F0E4
:1051D00001026260E350B3F5007F18D2DB085A1C6D
:1051E0004D6851F83270A76001209B1000FA03F35C
:1051F00001EBC2001D430838E0604D6041F83240C9
:10520000FC604046BDE8F04100F05ABB70475A0AC6
:10521000042A53D89A0902F139077F0002F13805B0
:1052200001EB870051F827204449083890424DD0BF
:10523000516821F003018B4202D292689042F7D16B
:10524000D068E060A2608460D4604046BDE8F04170
:1052500000F036BB95683A4FBD4203443FD0D0685A
:10526000E86043F0010285606260E350B3E7FF0746
:10527000034407D455F8082CA41A1344A068E26824
:10528000C26090602F4A126843F001009342606050
:105290008C60B6D32C4B40461968FFF721FFB0E76E
:1052A00011184968C90744D49168D268CA60034498
:1052B00043F0010091606060E350A2E7142A17D820
:1052C00002F15C077F0002F15B05A9E7AA104B68B9
:1052D000012505FA02F213434B600246B1E743F0A1
:1052E00001024C610C61E560A5606260E35088E7F3
:1052F000542A06D81A0B02F16F077F0002F16E05DF
:105300008EE7B2F5AA7F06D8DA0B02F178077F00A4
:1053100002F1770584E740F25450824206D89A0C95
:1053200002F17D077F0002F17C0579E7FE277E25EB
:1053300076E743F001026260E35062E75C0400201C
:105340006404002064080020DC0800202DE9F04FF0
:1053500001F10B05162D83B0064640F29F8035F013
:10536000070500F1BF80A94200F2BC8000F0A6FA58
:10537000B5F5FC7FC0F09C826B0A00F0BA80042B6C
:1053800000F28381A80900F1390E4FEA4E0338304C
:10539000C44F07EB8303A3F108015C68A14207D166
:1053A000ACE0002A80F2AC80E468A14200F0A68064
:1053B000636823F003035A1B0F2AF2DDB9493C69E5
:1053C00001F1080E744500F0B381636823F0030314
:1053D0005A1B0F2A00F39981002AC1F814E0C1F882
:1053E00010E080F29E80B3F5007F80F06781DB08DB
:1053F00003F1010C01229B1002FA03F34A6851F8F1
:105400003C80C4F8088001EBCC091A43A9F10803D9
:10541000E3604A6041F83C40C8F80C408310012426
:105420009C40944200F28A80144206D120F003008E
:105430006400144200F10400FAD007EBC009CC4626
:105440008046DCF80C108C4507D173E1002A80F20D
:105450008181C9688C4500F06D814B6823F003039E
:105460005A1B0F2AF2DD0C46D1F80CC054F8088FF5
:105470004B1945F001054D6042F00101C8F80CC020
:105480003046CCF808807B613B61C3F80CE0C3F880
:1054900008E059609A5000F013FA1FE0102921D853
:1054A00000F00CFA1025062302207E4F07EB830341
:1054B000A3F108025C68944200F045816368E168EA
:1054C000A56823F00303234430465A68E96042F09C
:1054D00001028D605A6000F0F3F90834204603B0F1
:1054E000BDE8F08F00240C232046336003B0BDE8F4
:1054F000F08F80234FF0400E3F2049E770465DE774
:105500002344E1685A68A56842F00102E960304628
:105510008D605A6000F0D4F90834204603B0BDE82D
:10552000F08F234430465A6842F001025A6000F07E
:10553000C7F90834204603B0BDE8F08FBC68636843
:1055400023F00308A84504D3C5EB08030F2B00F391
:105550008C80554BDFF860911A68D9F80030013320
:105560002A4404EB080A00F0608102F580520F32F1
:1055700022F47F6222F00F0211463046019200F0C1
:10558000A1F9B0F1FF3F8346019A00F058818245AE
:1055900000F2FC80454B1968DA451144196000F0AF
:1055A0005381D9F80000DFF810E101301BBFCAEBCE
:1055B0000B0A5144CEF800B019601BF0070100F04F
:1055C0001781C1F10800C1F58051834408315A4464
:1055D000C2F30B02C2EB010949463046019300F0C9
:1055E00071F9431C019B00F03F81CBEB00024A4460
:1055F00042F001021968C7F808B04944BC42CBF830
:1056000004201960DFF8A49016D0B8F10F0F40F213
:10561000FD806268A8F10C0323F00703E01802F094
:1056200001024FF0050E1A430F2B6260C0F804E030
:10563000C0F808E000F21C811D4BBC681A6891425A
:1056400088BF19601B4B1A689142626888BF196055
:1056500022F003029542A2EB050301D80F2B04DCD4
:10566000304600F02DF9002438E7621943F00103B9
:1056700045F0010565603046BA60536000F020F9DE
:105680000834204603B0BDE8F08F142B71D9542B99
:1056900000F2A480280B00F16F0E4FEA4E036E302B
:1056A00076E600BF5C040020DC080020E008002053
:1056B000D8080020D4080020680800205A0A042ACC
:1056C0005ED9142A00F2B38002F15C0149005B321A
:1056D00007EB810C57F82110DFF8DC81ACF1080CE6
:1056E0008C4500F088804A6822F00302934202D27F
:1056F00089688C45F7D1D1F80CC07A68C4F80CC021
:10570000A160CCF80840CC6088E6631942F001073C
:1057100045F00105656030464B610B61C3F80CE054
:10572000C3F808E05F609A50083400F0C9F8D5E685
:105730004A6873E608F1010818F0030F0CF1080C31
:105740007FF47FAE30E0DC68A34208BF02303FF454
:1057500035AEB3E60B440C465A68C96854F8085F86
:1057600042F001025A603046E9608D6000F0A8F80E
:10577000B4E603F15C0E03F15B004FEA4E0307E66B
:105780009A0902F1390149003832A1E7BC424A4B7B
:105790003FF400AF9C68626822F003025AE759F8B0
:1057A0000839994540F0828010F0030F00F1FF3076
:1057B000F5D17B6823EA04037B6064009C423FF6DA
:1057C000BDAE002C3FF4BAAE1C4240467FF435AE6D
:1057D00064001C4200F10400FAD02EE6B3F5AA7F63
:1057E00018D8E80B00F1780E4FEA4E037730CFE57A
:1057F0004FF48051EBE60121D8F80430921001FA01
:1058000002F21A43C8F80420614677E70123CBF877
:10581000043025E740F25452934220D8A80C00F1FE
:105820007D0E4FEA4E037C30B2E51032A4E6542AD6
:1058300026D81A0B02F16F0149006E3248E7BC68A6
:10584000626822F0030205E7CAF30B0000287FF428
:10585000A8AE4244BB6842F001025A60ECE6FE2367
:105860004FF07F0E7E2093E501224FF00009C1E644
:1058700004F108013046FFF781FCD9F80010DBE69F
:10588000B2F5AA7F05D8DA0B02F178014900773228
:105890001EE740F254518A4205D89A0C02F17D016C
:1058A00049007C3214E7FE217E2211E77B6884E701
:1058B000E808431C5B00F8E55C040020704700BF6B
:1058C000704700BF38B5074C0023054608462360E3
:1058D000FBF70CFD431C00D038BD2368002BFBD028
:1058E0002B6038BDC0110020000000000200000045
:1058F00001000000030000008011002030000020A3
:105900000000000001020304010203040607080965
:1059100074080020010000000000000000000000EA
:105920000102030406070809007A030A00000000C8
:10593000000000001C03002084030020EC03002072
:105940000000000000000000000000000000000057
:105950000000000000000000000000000000000047
:105960000000000000000000000000000000000037
:105970000000000000000000000000000000000027
:105980000000000000000000000000000000000017
:105990000000000000000000000000000000000007
:1059A00000000000000000000000000000000000F7
:1059B00000000000000000000000000000000000E7
:1059C00000000000000000000000000000000000D7
:1059D00000000000000000000100000000000000C6
:1059E0000E33CDAB34126DE6ECDE05000B0000008B
:1059F00000000000000000000000000000000000A7
:105A00000000000000000000000000000000000096
:105A10000000000000000000000000000000000086
:105A20000000000000000000000000000000000076
:105D500000000000000000003000002000000000F3
:105D6000000000005C0400205C04002064040020AB
:105D7000640400206C0400206C04002074040020E3
:105D8000740400207C0400207C0400208404002093
:105D9000840400208C0400208C0400209404002043
:105DA000940400209C0400209C040020A4040020F3
:105DB000A4040020AC040020AC040020B4040020A3
:105DC000B4040020BC040020BC040020C404002053
:105DD000C4040020CC040020CC040020D404002003
:105DE000D4040020DC040020DC040020E4040020B3
:105DF000E4040020EC040020EC040020F404002063
